:040000008A15C82B6A
:0E000600F201F101F001F801F30100300800F1
:10001400FB14FB1F1428FF30F300F200F100F00082
:08002400FA0DF20CFF30080098
:08002C00FA1FF2130030080076
:100034007B15FB1F24280130F300F201F101F001CC
:08004400FA0DF20CFF30080078
:10004C00103083120313FD00FD0B2A28000008005A
:10005C00083083120313FC002330FD00FD0B342801
:06006C00FC0B3428080023
:100072007C186F28FC1840287C198E283928A0018A
:100082007208031D60287108F2007008F1007808F8
:10009200F000F801A0157208031D60287108F20033
:1000A2007008F100F001A01120167208031D6028EB
:1000B2007108F200F101A0157208031982282008C4
:1000C200F302031D031C86280310F21B6F28F80D90
:1000D200F00DF10DF20DF30B662886287B1B701CC8
:1000E2008A28F81F8A28F00A0319F10A0319F20A6A
:1000F200031D8A28F20CF10CF00CF30A03198E2866
:100102008A280130FC00032091280230FC001A20CA
:1001120091280430FC00162091280830FC000A20A7
:0401220000000800D1
:0401260000000800CD
:10012A0083120313FA017308031D7A147708031D57
:10013A00FA147A080319E128033A0319AC287A1841
:10014A00A928F61FDF28DD28F21FDD28DF2872081C
:10015A008039FA00F21376088039F6137A06031901
:10016A00BA287A080319DD28DF28770873020319E9
:10017A00C128031CD528D928760872020319C82871
:10018A00031CD528D928750871020319CF28031C26
:10019A00D528D928740870020319E1280318D92828
:1001AA00FA080319DF28DD28FA080319DD28DF28F1
:1001BA0003140800031008000314031508000800BC
:1001CA00831203132230FC00F801F901FA01FB0142
:1001DA00FC0303191B290310FB0CFA0CF90CF80C8D
:1001EA00F30CF20CF10CF00C031CED28FC030319C0
:1001FA000D297408F80775080318750FF9077608AA
:10020A000318760FFA0777080318770FFB07F12808
:10021A007408F80775080318750FF90776080318A4
:0E022A00760FFA0777080318770FFB07080016
:10023800A0017208031D31297108F2007008F1004D
:10024800F001A0157208031D31297108F200F101AF
:10025800A0112016720803193F292008F302031D74
:10026800031C43290310F21B4729F00DF10DF20D71
:10027800F30B372943290130FC0003204A290230B7
:0E028800FC001A204A290430FC001620080051
:1002960083120313FB017308031D77080319A229B0
:1002A60072087606FA007708F3077E30031C5F298A
:1002B600F3020318A5296229F302031CA829720870
:1002C600F8007108FC007008FD00F817F617031017
:1002D600F201F101F0011830A0007D1C7C297408A0
:1002E600F00775080318750FF10776080318760FDF
:1002F600F207F20CF10CF00CF80CFC0CFD0C0310E0
:10030600A00B7029F21B8C29F80DF00DF10DF20DE2
:10031600F3037B1B701C9E29F81F9E29F00A031904
:10032600F10A0319F20A031D9E29F20CF10CF00CD6
:10033600F30A0319A529FA1FF2130030AA2901307E
:100346000320AA2902300A20AA2904301A20000014
:0203560008009D
:100358008312031373087706031DBF2972087606F4
:10036800031DBF2971087506031DBF29700874068F
:0C03780003190315080003110800080019
:10038400831203171408203A0319D32914080D3CC7
:10039400031CD12909301402031CD129D329F001EB
:0803A400D5290130F00008002A
:1003AC00831203137008F8007108F0007208F10052
:1003BC007308F200F301FB01FC019E30F300FA011B
:1003CC00F21FF429F809F009F109F209F80A0319E6
:1003DC00F00A0319F10A0319F20AFA170230FC00A9
:0403EC0039200800AC
:1003F00083120317941BFF2903138813012A031385
:1004000088170317141B072A03130813092A031359
:1004100008170317941A0F2A03138812112A0313BB
:1004200088160317141A172A03130812192A03131C
:10043000081683164F191F2A83120716212A8312C2
:100440000712871693208712031794192A2A031379
:1004500088132C2A0313881703171419322A03133D
:100460000813342A03130817031794183A2A03139E
:1004700088123C2A0313881603171418422A031300
:100480000812442A0313081683164F194A2A8312A6
:1004900007164C2A83120712871693208712831699
:0C04A0004F1D542A2E20552A262008004B
:1004AC00831203137008F100F0010830FC0071088E
:1004BC00F40C0318652AFC0B5E2AF10100340310BE
:1004CC006A2AF40C0318F107F10CF00CFC0B672AE8
:0204DC00080016
:1004DE00831203171408393C031C7C2A3030140293
:0E04EE00031C7C2A0130F0007D2AF00108007A
:1004FC00831603134F116B08831203179400F82112
:06050C0083164F150800E4
:10051200831603136C080319922A6C0884006B0873
:1005220080006B0884000008F0007008EF0070087B
:10053200831203179400C22170080319A42A831698
:100542000313EB0A922A83160313ED010030EF1B0B
:10055200FF30F00000307006031DB12A2D306F0607
:10056200031DB72A0130ED00EB0AC42A0030EF1B4D
:10057200FF30F00000307006031DC12A2B306F06D9
:10058200031DC42AEB0AEF018312031790019101A4
:100592009201930183160313EE016D1AD92A6B0897
:1005A200840000082E3A031DD92A6D16EB0A3C2B53
:1005B2006B08840000088312031794006F227008EE
:1005C200031DE42A3D2B83160313ED146F08083A2A
:1005D2000319342B6D1EEE2AEE03EF0A8312031762
:1005E2001008F0001108F1001208F2001308F300DD
:1005F2000A30F400F501F601F701E520700803174F
:100602009000710891007208920073089300000034
:100612000000831603136B08840030300002F000E0
:10062200F101031CF1030030F11BFF30F200F30073
:10063200831203171008F00711080318110FF107AE
:1006420012080318120FF20713080318130FF30707
:10065200700890007108910072089200730893006C
:1006620000000000392B831603136D1A392BEE0A92
:1006720083160313EB0ACE2A83160313EF016B08CA
:1006820084000008653A03194D2B6B0884000008AA
:10069200453A03194D2BB42BEB0A6B088400000872
:1006A2002D3A031D572BED15EB0A5E2B6B088400C8
:1006B20000082B3A031D5E2BEB0A6B08840000082E
:1006C200303A031D662BEB0A5E2B6B088400000890
:1006D2008312031794006F2270080319AD2B83163F
:1006E20003136B08840030300002EF00EB0A6B0842
:1006F200840000088312031794006F227008031904
:10070200AD2B831603136F08F0000A30F400562253
:1007120083166B08840030300002F1007108700704
:10072200EF00EB0A6B0884000008831203179400A1
:100732006F2270080319AD2B831603136F08F000A4
:100742000A30F400562283166B088400303000020F
:10075200F10071087007EF0083160313ED1DB42B2F
:100762006F08003CEF006F08EE076C08003A0319AF
:10077200C02BED1CC02B6C0884006B088000831218
:1007820003171008F0001108F1001208F200130814
:10079200F300D621700803179000710891007208C7
:1007A200920073089300F401F501F601F7011008B5
:1007B200F0001108F1001208F2001308F300AC2156
:1007C2000130031D0030F00070080319ED2BF00119
:1007D200F101F201F301132D803083166E06F00051
:1007E2008030003A70020318762C6E08003CEE004E
:1007F20080306E06F00080300A3A7002031C222C10
:10080200831203171008F0001108F1001208F20019
:100812001308F300FF30F400E630F5005B30F60019
:100822005D30F7004B2170080317900071089100AA
:1008320072089200730893000A3083160313EE02C3
:10084200F92B6E08003A0319462C8312031710087D
:10085200F0001108F1001208F2001308F300CD3085
:10086200F400CC30F5004C30F6007B30F7004B2121
:1008720070080317900071089100720892007308C3
:10088200930083160313EE03222C0130F400003090
:10089200F5000030F6000130F7008312031710084C
:1008A200F0001108F1001208F2001308F30095207D
:1008B200013003180030F00070080319752C8316FC
:1008C2006D1C6C2C0130F0000030F1008030F20021
:1008D2000330F300132D0130F0000030F10000303E
:1008E200F2000130F300132DF72C83168030003A0A
:1008F200F00080306E0670020318F72C0A306E0288
:10090200031CA42C831203171008F0001108F10035
:100912001208F2001308F300F930F4000230F50077
:100922001530F600A030F7004B2170080317900035
:100932007108910072089200730893000A308316BE
:100942000313EE027F2C6E08003A0319C82C83129F
:1009520003171008F0001108F1001208F200130842
:10096200F3000030F4000030F5002030F600823051
:10097200F7004B217008031790007108910072086C
:1009820092007308930083160313EE03A42C8312C0
:1009920003171008F4001108F5001208F6001308F6
:1009A200F700FF30F000FF30F1007F30F200FF303F
:1009B200F3009520013003180030F000700803198D
:1009C200F72C83166D1CEE2CFF30F000FF30F10087
:1009D200FF30F200FF30F300132DFF30F000FF3044
:1009E200F1007F30F200FF30F300132D83166D1CEF
:1009F200092D0030831203171006F0000030110693
:100A0200F10080301206F20000301306F300132DBD
:100A1200831203171008F0001108F1001208F20007
:060A22001308F3000800B8
:060A2800FB15FF30080081
:100A2E008312031372087606A000F801F901730809
:100A3E007702031C3A2D7708FD007308F7007D0836
:100A4E00F3007608FD007208F6007D08F2007508C6
:100A5E00FD007108F5007D08F1007408FD007008B6
:100A6E00F4007D08F00077080319B32D7208FA0020
:100A7E00F217F61777087302F70003196D2D083079
:100A8E007702031C632DF7007408F9007508F40053
:100A9E007608F500F60108307702031C632DF70087
:100AAE007408F9007508F400F50108307702031C8C
:100ABE00632D7A08F200B32D770803196D2D0310FC
:100ACE00F60CF50CF40CF90CF70B662DA01F7A2D15
:100ADE00F909F409F509F609F90A0319F40A0319D3
:100AEE00F50A0319F60A7908F80774080318740F43
:100AFE00F00775080318750FF10776080318760FBF
:100B0E00F207A01B932D031CA32DF20CF10CF00C7D
:100B1E00F80CF30FA32DAF2D0318A72DF809F0092C
:100B2E00F109F209F80A0319F00A0319F10A031977
:100B3E00F20A8030FA06AB2D0130FC003920B52DBB
:100B4E000230FC003920B52D0430FC001C21B52DDF
:100B5E000830FC000A20B52D0030FC000000080013
:0C0B6E00831203138030F60617250800E0
:100B7A00831603136608F2007208F000F20A70087E
:100B8A00840000080319CA2DC12D66087202F000FC
:0C0B9A000130F002F101031CF10308001F
:0E0BA600831603136608EB00EC018922080099
:100BB400831203137408003A031DF52D7508003AD7
:100BC400031DF52D7608003A031DF52D7708003A2C
:100BD400031DF52DFF30F000FF30F1007F30F200EF
:100BE400FF30F300902E8312031377080319842E29
:100BF40073080319872E720876068039FA00F217F3
:100C0400F617A0017208F8007108FC007008FD00D6
:100C14007408FD027508031C750FFC027608031C9A
:100C2400760FF802F801FC01FD01031C202E0310CD
:100C3400F20CF10CF00CF80C0130A0007708F30270
:100C4400031C2A2E7E302007F30703188A2E2F2E2A
:100C54007E302007F307031C8D2E1830FA07FD0D94
:100C6400FC0DF80DF00DF10DF20DA00D7408F0025D
:100C74007508031C750FF1027608031C760FF20247
:100C8400760DA004201C482E7D14532E7408F00702
:100C940075080318750FF10776080318760AF2072A
:100CA4007D10FA031F307A05031D312E7B1B7D1C3A
:100CB4007A2E0310F00DF10DF20DA00D7408F00260
:100CC4007508031C750FF1027608031C760FF202F7
:100CD400760D20040139FD070318FC0A0319F80AEC
:100CE400031D7A2EF80CFC0CFD0CF30A03198A2E52
:100CF400FA1FF8137808F2007C08F1007D08F00070
:100D040000308F2E013014258F2E023003208F2EB9
:0E0D140004300A208F2E08301A20000008003C
:0E0D2200033083120313FD00FD0B952E080015
:100D300083120313F8010830FC00700DF80D7408DD
:100D4000F8020318A52EF8070310F00DFC0B9D2EDA
:020D5000080099
:100D5200831603136608F2007208F100F20A6708AC
:100D6200F000E70A700884000008F00071088400AF
:100D7200700880007108840000080319C12EAD2E8E
:060D82006608F000080005
:100D880083160313E601E801E9011030EA00043094
:100D980069020318F22EF0308312860083166A095E
:100DA8008600932093200F3083120605F000700808
:100DB8008316E70070080319EC2E6808E600670838
:100DC8000319EA2EE70CE713E60AE32E0430E900DC
:100DD800EA0D6A100430E807E90ACB2E6608F0002D
:020DE800080001
:0E0DEA00831603134E088A004D08820008008D
:100DF8000E2F803083160313E600212FC030E60043
:100E0800212F9430E600212FD430E600212F8030A6
:100E1800E600212F831603136608013A0319FD2EF5
:100E28006608023A0319022F6608033A0319052FC8
:100E38006608043A0319082F0B2F6703F0006608A9
:100E4800F0077008E6007008831203179400F82171
:100E580083164F11E901690868078400000803191F
:100E68003D2F6908680784000008EB007E22E90A24
:060E78002F2F4F150800AA
:100E7E00C4267008D9000F3083120605F00003193E
:0E0E8E004A2F9126422F83165908F0000800C3
:100E9C00831203137008F800FB01FC019E30F30071
:100EAC00FA01F201F101F0010230FC0039200800D6
:100EBC00702F803083160313D900832FC030D900D4
:100ECC00832F9430D900832FD430D900832F8030D6
:100EDC00D900832F831603135908013A03195F2F86
:100EEC005908023A0319642F5908033A0319672F5A
:100EFC005908043A03196A2F6D2F5A03F000590848
:100F0C00F0077008D9004F1570088312031794006E
:100F1C00F82183164F115B08831203179400F821F4
:060F2C0083164F150800BA
:100F3200F5268A110A128000840ACD0A0319CE0A04
:080F4200F003031D992F0800C4
:100F4A00013083160313E6000130E700A030E80001
:100F5A00FC260630FB001330FC00AD30FD00FD0B13
:100F6A00B42FFC0BB42FFB0BB42F0000000083122C
:100F7A00EF0144306F020318E02F02308316E600B7
:100F8A000130E7002230F40083126F08F00098263F
:100F9A007808F0007008323E8316E800FC264130DB
:100FAA00FC00EE30FD00FD0BD82FFC0BD82F000003
:100FBA008312EF0ABE2F013003179400F8210800AC
:0A0FCA00FF308316031386000800B1
:1010000083160313E401E5015908E0005A08E100E2
:101010005B08E2005C08E3006308FF3A031D1A283E
:101020006208FF3A031D1A286108FF3A031D1A28B7
:101030006008FF3A031D26285D08E6006730E700D8
:101040008A11A9268A150330F000132A0130DE0028
:10105000E21F352880306206F0007008E200DE0AE8
:101060005D0884002D308000DD0A0030F00063064A
:10107000031D442870086206031D44287008610699
:10108000031D44286008003A031D4F285D08E60050
:10109000B130E7008A11A9268A15F001132A6308E6
:1010A000FF3A031D5D286208003A031D5D286108B0
:1010B000003A031D5D286008003A031D69285D0899
:1010C000E6006B30E7008A11A9268A155E08F00059
:1010D000132A0030F4000030F5000030F6007F30B5
:1010E000F7006008F0006108F1006208F200630890
:1010F000F3008A1195208A15013003180030F000A2
:1011000070080319A22883166008F0006108F10036
:101110006208F2006308F3000030F4000030F500CC
:101120002030F6008230F7008A114B218A157008B2
:101130008316E0007108E1007208E2007308E30022
:10114000E503692883160030F4000030F5002030F4
:10115000F6008230F7006008F0006108F1006208D4
:10116000F2006308F3008A1195208A150130031CF0
:101170000030F00070080319DC2883166008F000C6
:101180006108F1006208F2006308F300CD30F4005A
:10119000CC30F5004C30F6007B30F7008A114B2143
:1011A0008A1570088316E0007108E1007208E200F9
:1011B0007308E300E50AA2288316FF306005F800F3
:1011C000FF306105F9007F306205FA0000306305E9
:1011D000FB007808F4007908F5007A08F6007B082F
:1011E000F700F40DF50DF60DF70D741000306005E5
:1011F000F00000306105F10000306205F200FF30C0
:101200006305F3007008E0007108E1007208E20075
:101210007308E30074086004F00075086104F100CD
:1012200076086204F20077086304F3007008E000B7
:101230007108E1007208E2007308E3007F30630286
:10124000F0007008DF000130E3007008F40060086F
:10125000F0006108F1006208F2006308F30074080E
:1012600003193929F00DF10DF20DF30D7010FF3E49
:1012700030297008E0007108E1007208E20073088C
:10128000E3006308303EF0005D08840070088000D1
:10129000DD0A80306506F0008030013A7002031CE0
:1012A0005A298030063AF000803065067002031C2F
:1012B0005A2961295D0884002E308000DD0A013042
:1012C000E4000630DF005F08003A0319BF29E3019C
:1012D0006008F0006108F1006208F2006308F300A2
:1012E000F00DF10DF20DF30D7010F00DF10DF20D8A
:1012F000F30D70106008F00761080318610FF10723
:1013000062080318620FF20763080318630FF307FC
:101310007008E0007108E1007208E2007308E30061
:101320006008F0006108F1006208F2006308F30051
:10133000F00DF10DF20DF30D70107008E000710862
:10134000E1007208E2007308E3006308303EF00039
:101350005D08840070088000DD0A6408003A031DFF
:10136000BD29E5036508003A031DBD295D08840019
:101370002E308000DD0A0130E400DF036329FF30F6
:101380005D0784000008303A031DC829DD03BF292A
:10139000FF305D07840000082E3A031DD029DD03CD
:1013A0006508003A03190F2A5D0884006530800043
:1013B000DD0A80306506F0008030003A70020318C4
:1013C000E9295D0884002D308000DD0A6508003CB5
:1013D000E5006508DF006508093C0318FE290A30AE
:1013E000F4005F08F0008A1198268A153030F00763
:1013F00083165D08840070088000DD0A0A30F4005E
:101400005F08F0008A1198268A157808F0003030BD
:10141000F00783165D08840070088000DD0A5D080F
:0814200084008001F0010800C6
:10142800113083160313D2000030D3001130D400DA
:101438000030D5002130E6008A11BD258A157008D4
:10144800D0007108D100D8018030F00080305106FA
:101458007002031D312A5008580203184A2A5808F6
:10146800213E840000082E3A031D3E2A5808D40065
:10147800D501482A5808213E84000008653A031D12
:10148800482A5808D200D301D80A282A003053061F
:10149800031D502A11305206031D602A06305407D6
:1014A800D8001130580203185F2A5808213E8400DA
:1014B8008001D80A552AB62A520AD8008030F0008E
:1014C800803051067002031D6B2A50085802031819
:1014D800812A03305807F000F1010318F10A700857
:1014E800213EF1005808213E84000008F0007108F0
:1014F800840070088000D80A622A5208213E8400BD
:10150800783080005208013EF00000300318013E98
:101518005307F1007008213E84003130800002300A
:101528005207F00053080318013EF1007008213EED
:1015380084003030800003305207F000530803184D
:10154800013EF1007008213E84005E3080000330C7
:101558005007F00051080318013EF1007008213EC1
:0615680084008001080070
:10156E0083160313871207120812881208138813A2
:10157E0083128712071288130813881208128A1111
:10158E002E208A158A112E208A158A112E208A1550
:10159E008816081687168A1193208A1587128A11C3
:1015AE002E208A1587168A1193208A1587128A1182
:1015BE002E208A1587168A1193208A1587128A1172
:1015CE002E208A15081287168A1193208A158712E3
:1015DE008A112E208A1587168A1193208A15871252
:1015EE008812881787168A1193208A1587128A11F6
:1015FE002E208A158813081687168A1193208A15AD
:10160E008712081287168A1193208A1587128A115B
:10161E002E208A1587168A1193208A15871208168E
:10162E0087168A1193208A1587128A112E208A1501
:10163E00081287168A1193208A15871288170817A1
:10164E008816081687168A1193208A1587128A1112
:0A165E002E208A1583164F15080090
:10166800213083160313E6008A11D3258A158312C5
:10167800031370088316C5007108C6007208C700F6
:101688007308C8005630E6008A11D3258A158312DC
:10169800031370088316C9007108CA007208CB00CA
:1016A8007308CC00B52B83164508F0004608F100F6
:1016B8004708F2004808F3004908F4004A08F50012
:1016C8004B08F6004C08F7008A1117258A15080000
:1016D80083164908F4004A08F5004B08F6004C0840
:1016E800F7004508F0004608F1004708F2004808EE
:1016F800F3008A11B7258A15080083164508F000FB
:101708004608F1004708F2004808F3004908F400C9
:101718004A08F5004B08F6004C08F7008A114B21DF
:101728008A15080083164908F4004A08F5004B0892
:10173800F6004C08F7004508F0004608F100470895
:10174800F2004808F3008A11DA258A150800831682
:101758004508F0004608F1004708F2004808F30081
:101768000800831255082B3A0319572B55082D3AB0
:1017780003196C2B5508783A0319812B55082F3A11
:081788000319962BAB2B08009E
:10179000E025013083160313880083128814B722D2
:1017A0008A11E5278A150C308312031794008A11D9
:1017B000F8218A158A11A5278A15EF018A113F277A
:1017C0008A157008D600D7018312081CED2B113042
:1017D0008316D6000030D700E42B83165608570432
:1017E0000319DE2B01305602F0000030031C013ECD
:1017F0005702F1007008B33E84000008D600D701FC
:101800000030D70000305706031D082C4330560621
:10181000031D452C01308312031794008A11F8210F
:101820008A1583164F1000304F1801308312D700ED
:101830005708F0008A114E278A1570088316C900D0
:101840007108CA007208CB007308CC007008C5008C
:101850007108C6007208C7007308C8007018322CDF
:10186000CF10332CCF140030CF1801308312EF008B
:101870006F183D2C8316CF113F2C8316CF153030B7
:101880008312A1003030D6007A2D0030831657061F
:10189000031D4C2C3D305606031D7E2CCF1D5E2CA7
:1018A000CF14CF1134238312031370088316C5009D
:1018B0007108C6007208C7007308C800013083129F
:1018C000031794008A11F8218A1583164508D90058
:1018D0004608DA004708DB004808DC002130DD005C
:1018E000002014220230E6000130E7002130E80039
:1018F0008A11FC268A158312EF017A2D0030831697
:101900005706031D852C2B3056060319A02C0030DA
:101910005706031D8D2C2D3056060319A02C0030C0
:101920005706031D952C783056060319A02C00305D
:101930005706031D9D2C2F3056060319A02C052D8C
:10194000CF1DE02C01308312031794008A11F82177
:101950008A156F08003C0318CF2C3423831203131D
:1019600070088316C5007108C6007208C7007308A6
:10197000C8007008D9007108DA007208DB0073082B
:10198000DC002130DD00002014220130E6000130AF
:10199000E7002130E8008A11FC268A15CF1483164F
:1019A0000230D9000130DA005608DB008A115E27C8
:1019B0008A1556088312D500EF0183164F10002DAB
:1019C000CF18E72C83126F08213E84008001831614
:1019D00056088312D5000130031794008A11F821AC
:1019E0008A1502308316D9000130DA005608DB0070
:1019F0008A115E278A158312EF0183164F10CF15C7
:101A000030308312D600D7017A2D83164F1C112D4A
:101A100000305706031D0E2D2E305606031D112DC6
:101A20007A2D103083126F0203187A2D003083163E
:101A30005706031D1D2D2E305606031D202D4F1455
:101A4000CF1D422DCF1C382DCF100130831203172C
:101A500094008A11F8218A1502308316D9000130CA
:101A6000DA00831255088316DB008A115E278A1577
:101A700083126F08563E8400831656088000831236
:101A8000EF0A6E2D8316CF1C502DCF10013083121C
:101A9000031794008A11F8218A15EF0183164F105D
:101AA00083126F08213E840083165608800083123B
:101AB000EF0A6F08213E8400800121308316E60082
:101AC0008A11D3258A158312031370088316C50063
:101AD0007108C6007208C7007308C8008316013079
:101AE000D90083126F088316DA005608DB008A11CA
:081AF0005E278A15DE2B7B2D19
:101BC00021308400463083120313F00081308316E5
:101BD000CD000D30CE008A1199278A15A0308400DF
:101BE00011308312F000C7308316CD000D30CE00C7
:101BF0008A1199278A156730840008308312F00013
:101C0000D8308316CD000D30CE008A1199278A1561
:101C1000B130840014308312F000EA308316CD0016
:0C1C20000730CE008A1199278A150800B1
:040FD4003034003481
:100FD8003734343431342E343834353432343034D0
:100FE8003934363433343D342F3478342D342B347B
:040FF800433400344A
:101B02003034003400340034003400340034003403
:101B12000034003400340034003400340034003423
:021B220000348D
:101B24002034203420342034203420342034203411
:101B340020342034203420342034203420345534CC
:101B4400733465346C3465347334733420344334FF
:101B540061346C34633475346C34613474346F348C
:061B64007234203400344D
:021B6A00003445
:101B6C003034003400340034003400340034003499
:101B7C0000340034003400340034003400340034B9
:021B8C00003423
:101B8E002034573465346C3463346F346D346534BB
:101B9E00203454346F342034543468346534203453
:021BAE00003401
:081BB0004E3461344E34003460
:081BB80049344E344634003478
:02400E004A2F37
:00000001FF
